:020000041000EA
:1000000000B5324B212058609868022188439860DF
:10001000D860186158612E4B002199600221596106
:100020000121F02299502B49196001219960352056
:1000300000F044F80222904214D00621196600F024
:1000400034F8196E01211966002018661A6600F04E
:100050002CF8196E196E196E052000F02FF8012189
:100060000842F9D1002199601B49196000215960AB
:100070001A491B48016001219960EB211966A021F2
:10008000196600F012F800219960164914480160C1
:100090000121996001BC002800D000471248134993
:1000A000086003C880F30888084703B5996A0420EC
:1000B0000142FBD001200142F8D103BD02B5186610
:1000C0001866FFF7F2FF186E186E02BD00000240BE
:1000D000000000180000070000035F00212200005C
:1000E000F4000018222000A00001001008ED00E03C
:1000F00000000000000000000000000074B24E7A12
:1001000000000420E3010010C3010010E903001007
:10011000C1010010C1010010C1010010C101001097
:10012000C1010010C1010010C10100104503001001
:10013000C1010010C1010010C9030010D503001057
:10014000CD010010CD010010CD010010CD01001037
:10015000CD010010CD010010CD010010CD01001027
:10016000CD010010CD010010CD010010CD01001017
:10017000CD010010CD010010CD010010CD01001007
:10018000CD010010CD010010CD010010CD010010F7
:10019000CD010010CD010010CD010010CD010010E7
:1001A000CD010010CD010010CD010010CD010010D7
:1001B000CD010010CD010010CD010010CD010010C7
:1001C00000BE00BE00BE00BE00BE00BE00F03FF894
:1001D000103800BE00202049086006C881F3088856
:1001E00010471E48006800282DD10CA40ECC002911
:1001F00002D000F010F8F9E719491A4A002000E08F
:1002000001C19142FCD1184988471849884700BE6E
:10021000FDE701C901C29A42FBD37047AC38051013
:10022000C0000020441700203C4F051000000420AF
:10023000000004203C4F0510001004200010042092
:100240000000000070470A480FF0F4FD0047EFF38C
:100250000580C0B27047000008ED00E0000000D04B
:10026000501700201CCF0020CD02001089D70010AD
:1002700057560000F8B5C046F8BC08BC9E4670470B
:10028000F8B5C04610B5064C2378002B07D1054BB6
:10029000002B02D0044800E000BF0123237010BDF2
:1002A000A09C00200000000084020010044B10B548
:1002B000002B03D00349044800E000BF10BDC04636
:1002C00000000000A49C002084020010164B002BAC
:1002D00000D1144B9D46402292029A1A9246002168
:1002E0008B460F461348144A121A38F05BFE0F4B28
:1002F000002B00D098470E4B002B00D098470020D1
:10030000002104000D000D48002802D00C480DF01B
:100310003EFA38F099F82000290009F0F5F90DF0BF
:1003200033FAC0460000080000000420000000006E
:1003300069960010501700201CCF00208FD70010A6
:10034000000000007046C0082CD3EFF309808169DB
:1003500002390978002929D101B50FC8B8470CBC6A
:1003600003C29E461E4B06CB91421ED0083B1A602C
:10037000002909D0EFF3098020388863F0C0444693
:100380004D4656465F46F0C0906B1030F0C8A04610
:10039000A946B246BB4680F309882038F0C802203F
:1003A000C0430047EFF30880D1E770470D4A136858
:1003B0009942FAD801B5890053589C460FC8E047C6
:1003C0000CBC10609E46704701B508F015FC03BCDC
:1003D0008E46C7E701B508F0CDFB03BC8E46C1E7EA
:1003E000580A00208C710410102304E0202302E03E
:1003F000302300E040239C46F0B404AE7546E80884
:1004000001D3EFF309860E4F0FCE0FC70FBC0FC7F6
:100410004046494652465B460FC71DCE3100A60AEC
:1004200000D304316E0900D248311FC7EFF30980B1
:100430006946EFF3148663C7604601490CF040FD3E
:1004400050C7002001480421014B1847500C0020E0
:1004500045FE001002B4714649084900095649009A
:100460008E4402BC7047C04602B471464908490038
:10047000095C49008E4402BC7047C0460022430814
:100480008B4274D303098B425FD3030A8B4244D35C
:10049000030B8B4228D3030C8B420DD3FF2209029E
:1004A00012BA030C8B4202D31212090265D0030B5D
:1004B0008B4219D300E0090AC30B8B4201D3CB0353
:1004C000C01A5241830B8B4201D38B03C01A524195
:1004D000430B8B4201D34B03C01A5241030B8B4297
:1004E00001D30B03C01A5241C30A8B4201D3CB0282
:1004F000C01A5241830A8B4201D38B02C01A524167
:10050000430A8B4201D34B02C01A5241030A8B4269
:1005100001D30B02C01A5241CDD2C3098B4201D381
:10052000CB01C01A524183098B4201D38B01C01AFF
:10053000524143098B4201D34B01C01A5241030976
:100540008B4201D30B01C01A5241C3088B4201D325
:10055000CB00C01A524183088B4201D38B00C01AD2
:10056000524143088B4201D34B00C01A5241411AF9
:1005700000D20146524110467047FFE701B5002006
:1005800000F0F0F802BDC0460029F7D076E77047CA
:1005900003460B437FD4002243088B4274D30309E4
:1005A0008B425FD3030A8B4244D3030B8B4228D385
:1005B000030C8B420DD3FF22090212BA030C8B42AB
:1005C00002D31212090265D0030B8B4219D300E04B
:1005D000090AC30B8B4201D3CB03C01A5241830BD0
:1005E0008B4201D38B03C01A5241430B8B4201D380
:1005F0004B03C01A5241030B8B4201D30B03C01AA9
:100600005241C30A8B4201D3CB02C01A5241830A22
:100610008B4201D38B02C01A5241430A8B4201D351
:100620004B02C01A5241030A8B4201D30B02C01A7B
:100630005241CDD2C3098B4201D3CB01C01A5241E2
:1006400083098B4201D38B01C01A524143098B426B
:1006500001D34B01C01A524103098B4201D30B0154
:10066000C01A5241C3088B4201D3CB00C01A524179
:1006700083088B4201D38B00C01A524143088B423E
:1006800001D34B00C01A5241411A00D201465241D7
:10069000104670475DE0CA0F00D04942031000D3F6
:1006A0004042534000229C4603098B422DD3030A4B
:1006B0008B4212D3FC22890112BA030A8B420CD35B
:1006C000890192118B4208D3890192118B4204D384
:1006D00089013AD0921100E08909C3098B4201D304
:1006E000CB01C01A524183098B4201D38B01C01A3E
:1006F000524143098B4201D34B01C01A52410309B5
:100700008B4201D30B01C01A5241C3088B4201D363
:10071000CB00C01A524183088B4201D38B00C01A10
:100720005241D9D243088B4201D34B00C01A5241E7
:10073000411A00D20146634652415B10104601D374
:100740004042002B00D54942704763465B1000D3FE
:10075000404201B5002000F005F802BD0029F8D0A4
:1007600016E770477047C046D0400B1CD1409C46EE
:10077000203AD3401843524263469340184370478F
:100780009140031C90409C46203A934019435242AA
:100790006346D340194370478446101C62468C461A
:1007A000191C634600E0C0461FB501F059FE002841
:1007B00001D40021C8421FBD10B501F0B1FD404277
:1007C000013010BD10B501F04BFE002801DB002008
:1007D00010BD012010BDC04610B501F041FE00283B
:1007E00001DD002010BD012010BDC04610B501F094
:1007F000D3FD002801DC002010BD012010BDC04643
:1008000010B501F0C9FD002801DA002010BD01205B
:1008100010BDC0468446081C6146FFE71FB500F0C6
:100820005BFB002801D40021C8421FBD10B500F0B9
:10083000DDFA4042013010BD10B500F04DFB00283C
:1008400001DB002010BD012010BDC04610B500F036
:1008500043FB002801DD002010BD012010BDC04673
:1008600010B500F0EBFA002801DC002010BD0120DB
:1008700010BDC04610B500F0E1FA002801DA0020F2
:1008800010BD012010BDC0461C2101231B0498424D
:1008900001D3000C10391B0A984201D3000A083911
:1008A0001B09984201D30009043902A2105C4018C8
:1008B0007047C0460403020201010101000000006C
:1008C00000000000002B15D1002A13D1002906DBFF
:1008D00001DC002806D00020C043410802E080214E
:1008E0000906002007B4024801A14018029003BD88
:1008F00075FEFFFF03B4684601B5029800F048F9A1
:10090000019B9E4602B00CBC7047C046002B11D123
:10091000002A0FD1002900D1002802D00021C943AC
:10092000081C07B4024802A14018029003BDC0464B
:1009300035FEFFFF03B4684601B5029800F066F883
:10094000019B9E4602B00CBC7047C046F0B5CE4637
:10095000474615042D0C2E0080B50704140C3F0CDF
:100960009946030C7E435D43674363437F19340C10
:10097000E4199C46A54203D980235B029846C444EF
:100980004B4643435143250C36046544360C24043E
:10099000A4195B19591820000CBC90469946F0BD6B
:1009A0009E2110B5C905041CFFF764FF002803D180
:1009B000201C00F0EDFD10BD9E21201CC90500F09B
:1009C0000DFC00F0E5FD80231B069C466044F2E729
:1009D00070B500220C4B04000D00FFF711FF00283A
:1009E00004D12000290002F079FB70BD064B0022E3
:1009F0002000290002F00EF802F070FB80231B0695
:100A00009C466044F1E7C0460000E041F0B54F4627
:100A10004646D646C0B5040082B00D0091469846C1
:100A20008B422FD82CD04146484603F0F1FB2900D9
:100A30000600200003F0ECFB331A9C46203B9A464C
:100A400000D576E04B46524693401F004B46624627
:100A500093401E00AF4228D825D05346A41BBD4169
:100A6000002B00DA7BE00022002300920193012397
:100A7000524693400193012362469340009318E04D
:100A80008242D0D900220023009201930A9B002BBE
:100A900001D01C605D600098019902B01CBC9046BA
:100AA0009946A246F0BDA342D7D900220023009266
:100AB00001936346002BE9D0FB0798464146720834
:100AC0000A437B0866460EE0AB4201D1A2420CD835
:100AD000A41A9D41012024196D410021013E2418D2
:100AE0004D41002E06D0AB42EED9013E24196D4196
:100AF000002EF8D100980199534600196941002B46
:100B000023DB2B005246D3402A006446E2401C00FF
:100B100053461500002B2DDB26005746BE40330000
:100B200026006746BE403200801A9941009001912C
:100B3000ACE7624620239B1A4A46DA40614613001E
:100B400042468A4017001F4380E7624620239B1AD3
:100B50002A0066469A402300F3401343D4E76246D6
:100B6000202300219B1A0022009101920122DA40E9
:100B7000019280E72023624626009B1ADE402F0068
:100B8000B0466646B74046463B003343C8E7C046DA
:100B9000F0B583B016001F000090019103F044FBF4
:100BA00004000D0002000B0030003900FFF7CEFEFC
:100BB000009A019B121A8B41089920000A604B6031
:100BC000290003B0F0BDC046F8B557464E4645462D
:100BD000DE464402E0B546008846640A360EC70F7A
:100BE000002E63D0FF2E24D08023E400DB041C43BE
:100BF000002399469B467F3E434642465D02D20F04
:100C00005B006D0A1B0E9046924665D0FF2B55D0B7
:100C100080220021ED00D2047F3B1543F61A4346A3
:100C20004A467B400F2A00D98DE06D4892008258D9
:100C30009746002C54D108239946063BFF269B4635
:100C4000DAE70025534602291BD0032900D1BFE073
:100C5000012928D030007F30002820DD6A0704D029
:100C60000F222A40042A00D004352A0103D530007F
:100C70005C4A80301540FE2803DCAC01640AC2B235
:100C800001E0FF2200246402D205600ADB07104362
:100C900018433CBC90469946A246AB46F8BD01229B
:100CA000101A1B287CDD00220024ECE7002C1DD14B
:100CB00004239946033B00269B469DE7FF3E002DFB
:100CC00020D1022143464A467B400A430F2AD8D806
:100CD0004548920082589746002D19D10121F1E72D
:100CE0000C239946093BFF269B4685E72000FFF72A
:100CF000CBFD7626431F9C4000237642361A994648
:100D00009B4679E74A4603231A439146032186E727
:100D10002800FFF7B9FD431F36189D4076360021A5
:100D20007DE780240023E403FF22ACE70025802335
:100D3000DB031C4228D01D4226D12B435C02640AEF
:100D40004346FF229FE762016C01A24224D21B218D
:100D50000025013E012710006D005200002801DB34
:100D6000944201D8121B3D4301390029F3D11400EC
:100D7000621E944125436DE7BA4659462500534605
:100D8000022900D061E77CE78023DB031C43640277
:100D9000640A3B00FF2276E7121B1A210125D9E7DE
:100DA0009E362A00B5402C00C240651EAC4114435B
:100DB000620704D00F222240042A00D004346201CA
:100DC00003D4A401640A00225DE7012200245AE74B
:100DD0008024E4032C436402640AFF2253E7C046E4
:100DE0003C6B0410FFFFFFF77C6B041070B54200F2
:100DF0004E024C0045026D0A120EC30F760A240EF5
:100E0000C90FFF2A0FD0FF2C11D00120A24200D021
:100E100070BDB542FCD18B420DD0002AF8D128001C
:100E2000451EA841F4E70120002DF1D1EBE7012098
:100E3000002EEDD1E9E70020EAE7C04670B54A0090
:100E40004E02450244006D0A240EC30F760A120EAC
:100E5000C90FFF2C15D0FF2A0ED0002C15D1002A67
:100E600001D1002E1CD0002D14D08B4227D002209F
:100E7000013B1840013870BD002EEED002204042E8
:100E8000F9E7002DFAD1FF2A0ED0002A0ED1002E4C
:100E9000EDD00BE001230139994308000130EAE766
:100EA0000020002DE7D0E2E7002EE7D18B42DED113
:100EB000944205DD0221581E08400138DBE700247A
:100EC000A24204DCB542D2D80020B542D3D2581E8B
:100ED000012398430130CEE730B5420044024D0271
:100EE000C30F4800640A120E6D0A000EC90FFF2AD4
:100EF00012D0FF280CD0002A12D1002819D1002DC1
:100F000017D1002C2BD00220013B1840013826E0DD
:100F1000002DF0D0022022E0002CFBD1FF281FD0B2
:100F200000281FD1002D1DD10220013B184001389F
:100F300015E0002C0ED08B42E5D10022904204DC5B
:100F4000AC42E0D80020AC4209D2581E012398439D
:100F5000013004E00123013999430800013030BD1C
:100F6000002DD7D18B42CED18242E7DD0221581E1F
:100F700008400138F3E7C046F0B54E4657464546AF
:100F8000DE46E0B543025B0A450083B00F1C99467C
:100F90002D0EC60F002D57D0FF2D24D08020DB0052
:100FA000C0041843002381469A469B467F3D7C023D
:100FB0007A00FB0F640A120E984623D0FF2A4BD00A
:100FC000E30080240020E4047F3A1C43AD186B1C2E
:100FD00047460193534677403A000F2B48D87D4946
:100FE0009B00CB589F46002B00D085E008339A46E3
:100FF000063B9B467C027A00FB0FFF25640A120E1B
:101000009846DBD1002C00D090E0524601231A43D1
:1010100092460120DBE74C4658461700022824D0B0
:10102000032800D1CFE00022002301284DD158022F
:10103000D205400AFF071043384303B03CBC90463A
:101040009946A246AB46F0BD002B5BD104239A46DD
:10105000033B00259B46AAE7FF35002C60D1524692
:1010600002231A4392460220B1E7FF220023DEE763
:101070004B461B0C9C464B462604360C1804614616
:101080003300220C6446000C43434E435043544308
:1010900080191A0C1218964203D9802149028C46F5
:1010A00064441B041B0C1004C01883015E1EB34172
:1010B000800E1843130C1B199B0103431C002301D2
:1010C00079D5012362081C401443019A7F32002A1B
:1010D0004DDD630704D00F232340042B00D00434DC
:1010E000230103D53C4B019A1C408032FE2ABCDC14
:1010F000A3015B0AD2B29AE70C239A46093BFF256B
:101100009B4654E71800FFF7BFFB4A46431F76256E
:101110009A4000236D4291462D1A9A469B4646E717
:10112000524603231A439246032050E72000FFF75C
:10113000ABFB431F2D1A9C40763D002047E78023E0
:101140000027DB03FF2272E7424666E74C46320087
:10115000584662E780234A46DB031A4222D01C42EB
:1011600020D123435B025B0A4746FF225FE701234E
:101170009A1A1B2A21DC23000199D3409E318C400E
:101180001A0023005C1EA34113435A0704D00F2208
:101190001A40042A00D004335A0111D49B015B0A7F
:1011A000002244E780234A46DB0313435B025B0AC9
:1011B0003700FF223BE7019587E70022002336E74F
:1011C0000122002333E78023DB0323435B025B0A16
:1011D000FF222CE7BC6B0410FFFFFFF7F8B5474672
:1011E000CE464400C20F80B547024802400A8446FA
:1011F000664648007F0A240EF60025009046FB0054
:10120000000EC90FB146FF2800D185E001267140CC
:10121000261A914257D0002E43DD002800D07FE0EF
:101220004946002900D1AAE0013E002E00D0F7E097
:101230005B1A5A0100D48BE09B019C092000FFF748
:1012400023FB05388440854200DDD3E0451B2300A5
:1012500020200135EB40451BAC40621E94412343E6
:10126000072400251C40012241460A40002C04D0DE
:101270000F211940042900D00433590100D480E023
:101280000135ECB2FF2D00D0A3E0FF2400235B0268
:10129000E405580AD207204310430CBC90469946F7
:1012A000F8BD002E74D1601CC0B2012800DCA7E09C
:1012B0004A469C1A620100D5B6E0002CBED100223D
:1012C00000240023E3E7002E00DC85E0002846D060
:1012D000FF2C49D080224846D20410438146012287
:1012E0001B2E09DC20204C46801B84404A462000EF
:1012F000F240441EA04102439B185A0128D50135F3
:10130000FF2D00D1A8E00122072494491A405B0870
:101310000B4013431C40A6E7002E00D078E775E78A
:10132000FF2C54D080224946D20411438946012221
:101330001B2E09DC20214846891B88404A460100B3
:10134000F240481E81410A439B1A5A0100D573E7B7
:10135000012241460A40590700D089E711E048467A
:10136000002858D1FF2C0CD1DB08002B00D18CE7D2
:101370008020C00303435B025B0AFF2487E7FF2C46
:1013800025D0DB08FF2DF0D05B025B0AECB27EE7D4
:10139000002C4DD0FF2818D08024E404724223434F
:1013A0001B2A00DDC4E01C002025D440AA1A93406B
:1013B0005A1E934123434A460500D31A884638E70C
:1013C000721CF8D0F243FF28EAD10A004B46FF25F1
:1013D000D7E79B015B0A5AE7002E41D1651CE9B2B1
:1013E000012945DDFF2D00D14FE707244B445B0861
:1013F0001C4038E707225A4B2D1A2340144032E78D
:10140000002C1DD1002B7AD14B46002B00D191E04E
:101410000A000025B5E7013E002E19D14B446CE7C8
:10142000FF2C84D1FF25ACE74A468846D41A05E74D
:10143000002BC5D10A00FF28C8D005004B46A0E705
:10144000002B49D14B46002B77D00A00FF2598E7A7
:10145000FF2C00D043E787E70A00FF24002316E7AC
:10146000002C15D1002B57D1FF28E6D14B467BE746
:10147000002C20D1002B57D04946002953D04B4493
:101480005A0168D50724364A1C4001251340EAE674
:10149000FF28EBD08022D204764213431B2E53DC6C
:1014A0002025AD1B1A00AB40F2405C1EA341134344
:1014B0004B44050021E7002BD8D04946002900D134
:1014C00052E78021C9030F4200D14DE76046084230
:1014D00000D049E74B4647E74846FF25002800D1A2
:1014E0004FE78022D203174204D06046104201D158
:1014F0004B46884601224146FF250A4041E74846BF
:1015000000281FD01A1A500120D54A460724D31AA2
:101510001C4088460025A6E6741CC9D0F643FF2867
:10152000BCD14B4620E799464B460025DB082BE70C
:10153000012340E700220023A9E680230022DB03E9
:10154000FF24A4E600251CE70123B1E7002AF1D01F
:1015500013000025FCE60025FAE6C046FFFFFF7DEC
:10156000FFFFFFFB42024B0240004900520A5B0AA8
:10157000090E000EFF2806D00020FF2902D1180016
:10158000431E98417047FE38002AFBD1F4E7C0465D
:1015900041024200C30F490A120E00207E2A0DD9D3
:1015A0009D2A0CD8802000040143952A0ADC96204D
:1015B000821AD1404842002B00D108007047034AEC
:1015C0009818FBE7963A9140F4E7C046FFFFFF7F8B
:1015D00070B500283DD0C317C5185D40C40F280062
:1015E000FFF752F99E22121A962A07DCD2B2082877
:1015F00033DD083885406802400A23E0992A0BDD74
:10160000052329001B1AD94003001B339D402B00E2
:101610005D1EAB4119430D00052801DD431F9D40B0
:101620002B000F490B406E0709D00F263540042DC3
:1016300005D004335D0102D59F220B40121A9B0195
:10164000580AD2B24002D205400AE40710432043B0
:1016500070BD002400220020F4E76802400AF1E790
:10166000FFFFFFFB70B5041E34D0FFF70DF99E227B
:10167000121A962A07DCD2B208282EDD08388440D8
:101680006002400A21E0992A09DD030021001B3392
:1016900099404B1E994105231B1ADC400C43052839
:1016A00001DD431F9C4023000D490B40650709D015
:1016B0000F252C40042C05D004335C0102D59F2259
:1016C0000B40121A9B01580AD2B24002D205400ABE
:1016D000104370BD00220020F7E76002400AF4E7E3
:1016E000FFFFFFFBF0B54F464646D6460C00090308
:1016F000C0B5490A470F5E0039431F03DB0F9C4604
:1017000065007B0A570F1F436D0DE40F760DA14650
:10171000C000B846D200AB1B64457BD0002B5FDD18
:10172000002E00D0A4E03E00164300D112E15E1E60
:10173000002E00D09EE1871A4346B8428041012521
:10174000C91A4042091A0B0200D431E149024E0A7B
:10175000002E00D16EE13000FFF796F80300083B41
:101760001F2B00DD61E120223900D21A9E40D140BA
:101770009F400E439D4200DD51E15D1B6B1C1F2B02
:1017800000DD7CE12021C91A3D0030008F408840F7
:10179000DD40791E8F41310007222843D9400025C2
:1017A00007433A40002A09D00F233B40042B05D0C1
:1017B0003B1DBB42BF417F42C9191F000B0200D431
:1017C00026E26A1CC64B55056D0D9A4200D106E112
:1017D000C44AFF080A40530752023B43120B8EE0F3
:1017E000002B00D0B8E06B1C5B055B0D012B00DC0F
:1017F00030E1871A4346B842B641CB1A76429E1B67
:10180000330200D54CE13B003343A1D10022002438
:10181000002570E0002B00DCE5E0002E00D183E025
:10182000AF4EB54260D0802636043743B846382BD9
:1018300000DC3EE1434613431F007A1E97413F18E8
:1018400087428041404209180B0200D4B0E0A44B0B
:1018500001359D4200D1C3E0A24A7B080A40012124
:101860000F401F435108D30707221F433A4099E70F
:101870009B4EB54238D0802636043743B846382BC5
:1018800000DDDCE01F2B00DC30E11E004746203E7F
:10189000F740BC46202B04D04026F31A46469E4013
:1018A0003243170063467A1E97411F43CCE0002B5A
:1018B00000D104E24346134300D159E14B07C0086D
:1018C00018438023C9081B03194208D04546ED0878
:1018D0001D4204D14346D008590708432900420F4E
:1018E000C9007F4D1143C0004B07CA087C49C0089E
:1018F00003438D4268D012036D05120B6D0D00215C
:1019000012031800130B0A0D12051A43764B2D050E
:1019100013402B435B00E4075B08234319001CBC06
:1019200090469946A246F0BD3E00164312D05E1E78
:10193000002E00D000E18718874280414144404298
:10194000091801250B0233D5022585E764463300CB
:10195000414610001D00C7E7002D00D0DAE00C0062
:101960000443F3D05C1C00D19FE15D4CA64200D142
:101970002FE1DB43382B00DD66E11F2B00DD83E127
:1019800020240500E41A0F00DD40D940A040434662
:10199000A7405B1A441EA04198462F433843171AAC
:1019A000BA42924143465242991A64463500CAE609
:1019B00007223A40002A00D0F6E64B07CA084849F9
:1019C000FF083B438D4296D11900114300D19EE19F
:1019D000802109030A431203120B414D8FE71500C2
:1019E000002200238BE7002B00D0C7E06B1C5F05B3
:1019F0007F0D012F00DCF1E0394DAB4200D1B9E0A1
:101A000085180A00854289414244494251180722FB
:101A1000CF076D082F4349083A401D00C2E6072250
:101A20003049ED1A31403A40BCE63E002838864045
:101A300000279FE63800FEF727FF20308EE643465A
:101A400013431F007A1E9741C71BB8428041404292
:101A5000091A78E60E003B0006431343002D61D1BE
:101A6000002E00D0F4E0002B00D11BE164463900C9
:101A7000100039E71A4FBB427AD03300FFE630003E
:101A80001F3DE840202B03D04021CB1A9E40374316
:101A90007B1E9F41072207433A400021002589E72A
:101AA000171A4346BA42B641591A76428E1B64460B
:101AB0004EE61F2B00DDADE020264746F61AB74064
:101AC000B9461700B246DF404E463E433700564601
:101AD000B240561EB24117434246DA408918AEE67C
:101AE000FF070000FFFF7FFFFFFF0F802026474614
:101AF000F61AB740B9461700B246DF404E463E439D
:101B000037005646B240561EB24117434246DA40AD
:101B1000891A99E77F4CA6425BD0802424045B425B
:101B2000214327E7002E0CD1002B00D1CBE06446E7
:101B300039001000774DD7E6764FBB4218D03300FE
:101B400075E6002B14D04B07C00818438023C90842
:101B50001B03194207D0FC081C4204D17907D008A6
:101B60000843E14621004C46420FC9001143C00022
:101B7000684DB9E61D0000220023C0E6002D5BD1B0
:101B80000D00054300D1E2E65D1C00D1B0E0614DDF
:101B9000AE421FD0DB43382B71DC1F2B00DD96E0FB
:101BA00020250F00ED1AAF40B9460700AA46DF40D6
:101BB0004D463D432F005546A840D940451EA841FB
:101BC00088440743BF18974292415142414435002F
:101BD0003AE6644635004146100085E60B000343B3
:101BE000002D00D063E6002BF5D04346134300D10F
:101BF0007AE687188742804107224144404209180B
:101C00003A400B0200D4D5E6434B01351940C9E5F3
:101C1000380069E61E004746203EF740BC46202BB0
:101C200004D04026F31A46469E40324317006346CE
:101C30007A1E97411F4302E6364DAE42CAD0802538
:101C40002D045B422943A6E70843411E8841A6E6CE
:101C5000002B00D148E6871A4346B842B641CB1A5A
:101C600076429E1B33024BD5171A4346BA42924125
:101C7000591A5242891A072264463A4092E50143B2
:101C80000F00791E8F419DE71C000F00203CE740AC
:101C9000202B03D04024E31A99400843411E884179
:101CA00038437CE60022002425E6171A4346BA4250
:101CB0009241591A5242891A6446350043E5414619
:101CC0001000144D10E680220024120380E61D004F
:101CD0000F00203DEF40BC46202B03D04025EB1ADF
:101CE0009940084307006346781E87411F4369E710
:101CF000871897429B4141445B42C9183500A3E5D0
:101D00003B003343CED0072231003A4052E6002355
:101D10001A00F4E5FF070000FFFF7FFFF0B557460C
:101D2000DE464E464546E0B5834607000E034800B2
:101D300085B092461C00360B400DCD0F002800D117
:101D40009DE0954B984239D08023F6001B041E433A
:101D5000924A7B0F334399469446030063440093B1
:101D600000230026FF00029323031B0B9846630009
:101D7000E40F52465B0D019400D1B3E086498B42DB
:101D800000D19EE04246D100802212040A4351460F
:101D9000490F11438B46814952468C460099634452
:101DA000CB1A0021D20000932B0063409A460F2EDD
:101DB00000D905E17A4BB6009B599F465B463343F9
:101DC000994600D0B8E0022308260027009002932D
:101DD000CAE7CB463A0002990195019B9A4602292F
:101DE00027D0032900D180E2012944D06D49009B0E
:101DF0008C4663441C00002C38DD530700D013E2EE
:101E0000D2085B46DB0109D55946674B19408B4622
:101E10008021C9008C46009B63441C00634B9C429C
:101E200007DC5B4664055F075B0217431B0B620D13
:101E300002E000230027584A00211B031C0B0B0D56
:101E40001B05234314055A4A380013401C435346CC
:101E50006400DB0764081C43210005B03CBC9046CD
:101E60009946A246AB46F0BD0122524201231B1BFC
:101E7000382B00DCADE1002200230027DCE75B46C5
:101E8000334399465ED0002E00D18AE13000FEF740
:101E9000FBFC03000B3B1C2B00DD7BE11D22D31A56
:101EA0005A460100DA4008398E4013005F4633433A
:101EB00099468F403F4B00261B1A00930023029344
:101EC00052E7414653460B433B499B468C46009B99
:101ED000634400935B46002B3BD1022300221E4348
:101EE000022161E7434613439B4637D04346002B0C
:101EF00000D162E14046FEF7C7FC03000B3B1C2B00
:101F000000DD53E102004146083A914088461D2118
:101F1000CB1A5146D9400B0041460B439B465346D2
:101F200093401A00009B25499C46604403008C4660
:101F300063440093002137E70323B14600900C2649
:101F4000029311E700230093013304260027029334
:101F50000AE70323C3461E43032125E701331E433B
:101F60000022012120E700239A46802300271B033B
:101F7000094A61E7802349461B03194200D1E2E088
:101F80005946194200D0DEE00B431B0317001B0B20
:101F9000A246014A50E7C046FF07000001FCFFFFD0
:101FA000FC6B0410FF030000FFFFFFFEFE070000B4
:101FB000FFFF0F800DFCFFFF01F8FFFFF3030000A0
:101FC000D94500D9CBE000D1C6E03C004846002707
:101FD000009B013B00935B46160E1B021E4313023F
:101FE000984633041B0C9946310C0191FEF7CCFA4C
:101FF0004A4642430B04210C050019438A4207D983
:102000008919013D8E4203D88A4201D9851E89195A
:10201000881A0199FEF7B8FA09048C464A46210449
:1020200064464243090C030021438A4204D98919BA
:10203000013B8E4200D8F1E02D041D43AB464346E0
:10204000891A4246280C12041D0C5B46140C22000F
:102050001B041B0C5A4303946B434443029568438F
:102060001B19150CEB189C4203D980246402A4466A
:1020700060441C0C15041B042D0C20185D198142B2
:1020800077D373D00C1AA24A7D1BAF42BF4194464E
:10209000009B7F426344E01B1C00864200D1DBE0D2
:1020A0000199FEF771FA4A4642430B04290C0700D6
:1020B00019438A4207D98919013F8E4203D88A42BF
:1020C00001D9871E8919881A0199FEF75DFA09045A
:1020D0004A46894629044D464243090C03002943D8
:1020E0008A4207D98919013B8E4203D88A4201D915
:1020F000831E89193F04891A3A00039F1A43380046
:1021000013041B0C584381460298150C6F4343433C
:1021100045434846000C8446DB1963449F4203D97B
:10212000802040028446654448461F0C00041B047E
:10213000000C7D191818A94200D284E000D17FE07C
:1021400001231A4357E680234A461B0313431B030C
:102150001B0BAA466F4A6FE6BA4200D935E74B46D9
:10216000DC0758087B081C43FF0734E70024AF4214
:1021700089D247444745A4415B466442A419641888
:10218000013BA6421ED2A0426DD800D1B6E0241A6F
:102190009B4678E703005A46283B9A400027914621
:1021A00088E65846FEF770FB203072E60300524680
:1021B000283B9A4093460022B4E65046FEF764FB63
:1021C00020309AE6A642E2D1B845DCD9341A9B46C3
:1021D00059E71F2B65DC504C0099A4465C466144CE
:1021E00008008C4011008240D940501E82410C43AF
:1021F00014435A46DA401300620709D00F222240E6
:10220000042A05D02200141D9442894149425B18DA
:102210001A0262D50122002300270DE68A4200D867
:102220000AE7831E891907E70F231340042B00D107
:10223000E6E5171D9742924153429B44FA08E0E5B8
:10224000002800D1D7E57118531EB14227D3A94207
:1022500015D358D01A0073E7002B00DC04E60123E5
:1022600000229B44CDE502234744474589415B4218
:102270009C46494289190C19E344241A03E7434652
:102280005F0047459B41B8465B429E19023A891957
:10229000A94200D054E7404500D051E7ABE51A0011
:1022A000F6E71F215F4649420C1BE740202B07D071
:1022B0001A49009B8C46634418005B4683401A43CE
:1022C000501E82413A4307270023174009D00F21AF
:1022D000002311401400042995D122005F075B02FE
:1022E0001B0BD20817430022A6E5802359461B0387
:1022F0000B431B0317001B0B064A9DE5BD42B2D8DA
:102300009B460024BFE68045B9D31A00C3E7C04608
:10231000FF030000FF0700001E0400003E04000051
:10232000F0B54F464646D6468446C0B58046194E5F
:1023300018030F034D00000B5C0082463F0B6D0D30
:10234000C90F9146640DDB0F0120B5420AD0B4429B
:1023500003D0A54201D157450CD01CBC90469946EC
:10236000A246F0BD66463E43F7D1AC42F5D1544695
:102370001443F2D10120C845EFD1994207D0002D76
:10238000EBD163461F433800471EB841E5E7002004
:10239000E3E7C046FF070000F0B54F464646D64685
:1023A0004D00C0B50E03C90F8A462C491F035C00BF
:1023B0008046360B6D0D91463F0B640DDB0F8D4251
:1023C0001ED08C4216D0002D1ED130438446002CE6
:1023D00001D13A4323D06246002A1AD09A4529D027
:1023E000514602200139084001381CBC90469946EC
:1023F000A246F0BD39001143E5D002204042F4E787
:102400003043FAD1AC420FD0002C0FD13A43E7D081
:102410000CE00122013B934318000130E5E76346DD
:102420000020002BE1D0DBE73A43E6D19A45D7D133
:10243000A542D5DCA54205DBBE42D1D808D000209C
:10244000BE42D2D250460123013898430130CCE736
:10245000C845C5D80020C845F4D3C6E7FF0700002B
:10246000F0B54F464646D6464D00C0B50E03C90FDF
:102470008A462E491F035C008046360B6D0D91463F
:102480003F0B640DDB0F8D4218D08C4211D0002D14
:1024900018D130438446002C1ED13A431CD16346E8
:1024A0000020002B30D0514602200139084001386D
:1024B0002AE039001143EAD0022025E03043FBD165
:1024C000AC4226D0002C26D13A4324D151460220DA
:1024D00001390840013817E06246002A0FD09A45BA
:1024E000E1D1A54205DBBE42DDD819D00020BE42B5
:1024F0000AD25046012301389843013004E00122FA
:10250000013B9343180001301CBC90469946A246FB
:10251000F0BD3A43D0D19A45C5D1A542C3DCE0E72E
:10252000C845C0D80020C845E3D3EDE7FF07000049
:10253000F0B55746DE464E464546E0B583460600B2
:102540000F03480087B092461D003F0B400DCC0F93
:10255000002800D16FE0DE4B984238D08023FF0086
:102560001B041F43730F3B430193DA4B002799462B
:1025700000239B46F60081442B0369001B0B524647
:102580009846490DED0F002900D185E0D04B9942C6
:1025900000D173E04346DA0080231B041343524604
:1025A000CC48520F84461343524600206144D20067
:1025B00089442100694000918C46012149448A46A2
:1025C0000F2F00D990E0C449BF00CF59BF465B46EA
:1025D0003B43019300D06AE102230827002681468D
:1025E0009B46C9E732005846019B6146009102288C
:1025F00000D175E0032800D1FEE1012800D02CE1D4
:1026000000230027002600253F032A0D3F0BB34877
:1026100012053A4302401B051343009A5B00D107A1
:102620005B080B433000190007B03CBC904699464C
:10263000A246AB46F0BD5B463B43019300D12FE180
:10264000002F00D1A5E13800FEF71EF903000B3B77
:102650001C2B00DD96E11D22D31A5A460100DA40F8
:102660005E4608398F4013008E403B4301939C4BDC
:1026700000271B1A994600239B467DE74146534697
:102680000B4393498C46E144002B00D01AE102220F
:102690000220174300228CE7134300D10DE143468B
:1026A000002B00D181E14046FEF7EEF802000B3A24
:1026B0001C2A00DD72E10100434608398B40984630
:1026C0001D239A1A5346D3401A00434613435246D9
:1026D0008A404946081A824989468144002068E7B1
:1026E0007B4B002700268EE7140C1204120C1100FD
:1026F000370C3604350C794328008C462E00604395
:102700006044834656432100300C80465846794346
:1027100040440291844506D98846802149028C466E
:10272000E044414602913604010C360C00048B460D
:1027300081191E0C1B041B0C0391190079438C4654
:10274000280075436544A8465843050C4544774323
:10275000A94203D9802149028C466744290C8C4642
:1027600039000004000C2D042D186144AB44059180
:102770005946049101990F043F0C080C390051434C
:102780004243904602008C46090C8B4662437C43D0
:1027900044445C44A04503D9802149028846424410
:1027A000210C884661460904090C8C4639005943BE
:1027B000434370437E430F0CF6182404BE1964444F
:1027C00042448C46B34203D980235B02984640447E
:1027D000029B61469846049B370443449B46AB45A5
:1027E000AD416B420D0405992D0C8C467F19674451
:1027F000FD18A8465D462D19A542A44193466442A2
:10280000A446C344DC448F42BF4198459B41934555
:102810009241A445A4415B427F421F43360C524281
:102820006442BF192243BF18624638184302D20DD2
:10283000039913436A020A43501E82416146ED0D1B
:102840002A434E023243D90100D4B3E00126500896
:1028500032400243DE0732435B08224C5444002CD2
:1028600062DD510709D00F201040042805D0101D4B
:102870009042924152429B180200D90104D5802413
:102880001948E400034054441848844200DD27E717
:102890005E075B02D2081F0B630516435B0DB2E6B1
:1028A000002399460133042700269B4664E6032350
:1028B000019781460C279B465EE6012201201743C3
:1028C000002276E6032303201F43434671E6C046F9
:1028D000FF07000001FCFFFF3C6C0410FFFF0F80AE
:1028E0000DFCFFFFFF030000FFFFFFFEFE070000DF
:1028F0000023802700933F030026434B83E6019B80
:102900003200A446584670E6AC466EE68027019930
:102910003F0339422DD03B422BD11F433F033F0B96
:1029200000951600384B6EE601252D1B382D00DD75
:1029300066E61F2D40DC35481C00504416008240DE
:102940008440EE40501E824134431443EB40620702
:1029500009D00F222240042A05D02200141D9442DF
:10296000804140421B181A023ED501230027002651
:1029700049E68027019B3F031F433F033F0B009421
:10298000214B40E603005A46283B9A40002601921C
:102990006DE65846FDF778FF203057E603005246B3
:1029A000283B9A401300002293E65046FDF76CFF47
:1029B00020307BE6CA4650E71F201E004042041B21
:1029C000E640202D03D0124C5444A3401A43501E1D
:1029D0008241324307260027164009D00F200023EA
:1029E000104014000428B9D122005E075B021F0BBF
:1029F000D2081643002306E680273F031F433F0308
:102A00003F0B1600004BFEE5FF0700001E04000010
:102A10003E040000F8B557464E464546DE460C00DB
:102A20000903E0B5490A460F5F0031431E03DB0F7F
:102A3000760A9B46530F3343C84E6500C000E40F2F
:102A4000D2006D0DA24681467F0D9C469046B7424E
:102A500000D1B9E05B46012673409B46EE1BA345BF
:102A600000D183E0002E63DD002F00D0B1E063468B
:102A7000134300D123E1731E002B00D0BAE1861A64
:102A80006346B04280410125C91A4042091A0B022F
:102A900000D447E149024B0A98464346002B00D137
:102AA00089E14046FDF7F0FE0300083B1F2B00DDE7
:102AB0007CE120223000D21A4146D04099400200E9
:102AC0009E400A439D4200DD6AE15D1B6B1C1F2B8B
:102AD00000DD94E1202110003500C91A8E40DA4053
:102AE0008840DD40711E8E411100072228430025D9
:102AF00006433240002A09D00F233340042B05D06F
:102B0000331DB342B641764289191E000B0200D430
:102B10003DE26A1C914B55056D0D9A4200D119E1B9
:102B20008F4AF6080A40570752023743120B9BE0C0
:102B3000002E00D0C5E06E1C7605760D012E00DC5F
:102B400048E16746861ACB1BB042BF417F42B84678
:102B50001F004346FF1A3B00B8461B0200D55FE149
:102B600037439AD100220024002579E0002E00DCB2
:102B7000FAE0002F00D18DE0784B9D4267D0802392
:102B800067461B041F43BC46382E00DC52E16346F7
:102B900013435A1E93411E18864280414042091831
:102BA0000B0200D4BEE06D4B01359D4200D1D2E056
:102BB0006B4A73080A4001210E401E435108D30797
:102BC00007221E43324095E71E00164300D045E71A
:102BD00040E7624B9D423AD0802367461B041F4367
:102BE000BC46382E00DDEBE01F2E00DC3AE133005E
:102BF0006746203BDF403B00202E05D04027BF1B0F
:102C00006646BE40324390464646721E9641334366
:102C1000DAE0002B00D114E26346134300D168E1EF
:102C200080234E07C008C9081B030643194208D079
:102C30006046C008184204D163460100D2085E070E
:102C40001643F3009946C900720F444D11434B4699
:102C5000DE08424B4F073743CA089D4200D16EE061
:102C600012036D05120B6D0D00211203130B0A0DDB
:102C700012051A433B4B2D0513402B435B00E40721
:102C80005B082343380019003CBC90469946A24695
:102C9000AB46F8BD6346134311D0731E002B00D022
:102CA00007E18618864280416144404209180125A7
:102CB0000B0237D502257BE73E0061469146350081
:102CC000C5E75C46002D00D0E1E00B000343F3D0E4
:102CD000731C00D1ACE1214B9F4200D13AE1F34398
:102CE000382B00DD6FE11F2B00DD8CE120250E006D
:102CF000ED1AAE40B0460600AA46DE4045463543D2
:102D00002E005546D940A8406346451EA8415B1A8F
:102D10009C463043161AB242924163465242991A77
:102D20003D00B4E607223240002A00D0E4E60B4B17
:102D3000F6084F073743CA089D4200D090E73B0092
:102D4000134300D1A6E180231B031A431203120B85
:102D5000024D89E715000022002785E7FF070000E4
:102D6000FFFF7FFFFFFF0F80002E00D0C7E06B1C2E
:102D70005E05760D012E00DCF0E0C84DAB4200D1BF
:102D8000B9E085180A0085428941624449425118D8
:102D90000722CE076D082E43490832401D00A9E6E0
:102DA000BF49ED1A114007223240A3E6320028380D
:102DB0008240002686E63000FDF766FD203073E68F
:102DC000634613435A1E9341C61AB04280414042A3
:102DD000091A5CE60E00674606431743002D5ED1D4
:102DE000002E00D0F3E0002F00D11EE15C466146CA
:102DF00091462CE7A94FBE427BD01E00F1E61000A1
:102E00001F3DE840202B03D04021CB1A9A401643A7
:102E1000731E9E410722064332400021002583E7AE
:102E2000161A6346B2428041591A40420B1A98461C
:102E30005C4632E61F2E00DDABE02027BB1B9A4626
:102E400063465746BB40994613004F46F3401F4325
:102E50003B005746BA40571EBA4113436246F24000
:102E6000891898E62027BB1B9A4663465746BB4005
:102E7000994613004F46F3401F433B005746BA4064
:102E8000571EBA4113436246F240891A9CE7834BAE
:102E90009F425FD080252D047342294320E7002EF6
:102EA0000CD1002F00D1D0E05C46614691467B4DAD
:102EB000CDE67A4FBE421CD01E0065E6002F18D02A
:102EC000C0084E0706438020C9080003014208D00D
:102ED0006346DC08044204D12100DA46D2085E07CA
:102EE0001643F300994601245346C900720F11435B
:102EF0001C406A4DABE61D0000220027B4E6002D01
:102F000059D10B00034300D1D6E6731C00D1B2E0C7
:102F1000624B9F421ED0F343382B6FDC1F2B00DD2A
:102F200097E020250E00ED1AAE40B0460600AA46F6
:102F3000DE40454635432E005546A840D940451E43
:102F4000A8418C440643B6189642924151426144CE
:102F50003D0025E63D006146914678E60B000343BF
:102F6000002D00D055E6002BF5D06346134300D169
:102F70006DE686188642804161444042091800226D
:102F80000B0200D4D0E6464B01351940B2E5B146FC
:102F90005DE633006746203BDF403B00202E05D036
:102FA0004027BF1B6646BE40324390464646721ECF
:102FB00096413343EFE5394B9F42CBD080252D041A
:102FC00073422943A8E70843411E8841A2E6002F27
:102FD00000D13CE66346861ACF1AB0429B415B4261
:102FE000FB1A98461B024ED5161A6346B24292410E
:102FF000591A5242891A5C4600227BE501430E00B1
:10300000711E8E419FE71D000E00203DEE40B04630
:10301000202B04D04025EB1A9940084381464846AE
:103020004346411E8841184374E60022002417E6F7
:10303000161A6346B2429241591A5242891A3D0009
:1030400025E561469146154D01E6802200241203D4
:1030500079E61D000E00203DEE40B046202B04D046
:103060004025EB1A9940084381464E464346711E5F
:103070008E411E4367E7861896429B4161445B423E
:10308000C9183D008CE547463743CED0072241465C
:10309000324049E600273A00E6E5C046FF07000057
:1030A000FFFF7FFF70B50C4E0D031C0349005B0052
:1030B0002D0B490D240B5B0DB14208D006490020B1
:1030C0008B4203D114432000441EA04170BD054330
:1030D0000120002DFAD1F1E7FF07000030B5144DB3
:1030E0000A034B00120B5B0DC90F0024AB4211DD2C
:1030F000104CA34210DC8024640322430E4CE41ADB
:103100001F2C0CDD0D48C31ADA4013005C42002965
:1031100000D11C00200030BD094BCC18FAE7094D46
:10312000E040AC4663449A4013000343EEE7C046D8
:10313000FE0300001D04000033040000130400001F
:10314000FFFFFF7FEDFBFFFF70B500282DD0C317F9
:10315000C5185D40C40F2800FDF796FB154B1B1AE0
:103160005B055B0D0A2815DD0B38854000222D0319
:103170002D0B002110002D030A0D2D0B12052A43E3
:103180000D4D1B052A4013435B00E4075B082343F6
:10319000190070BD02002900153291400A000B2170
:1031A000081AC5402D032D0BE3E70024002300255A
:1031B0000022DEE71E040000FFFF0F8010B5041E92
:1031C00025D0FDF761FB144B1B1A5B055B0D0A282C
:1031D00012DD0B38844000222403240B0021100050
:1031E00024030A0D240B120522430C4C1B0522401C
:1031F00013435B00590810BD0200210015329140B5
:103200000A000B21081AC4402403240BE6E700231C
:1032100000240022E2E7C0461E040000FFFF0F80EA
:10322000F0B54C00640D0B03621C5B0A460F52059F
:10323000C90F1E43C500520D012A29DD374BE7187F
:10324000FE2F1CDC002F3BDD8001431E984107222E
:10325000F3006D0F03432B431A40002A04D00F22C2
:103260001A40042A00D004338022D2041A4024D009
:103270000137FAB2FF2F02D09B01580A01E0FF226A
:1032800000204002D205400AC90710430843F0BDA0
:103290003543002C04D1002D0AD100220020F0E794
:1032A000002DECD08020C0033043FF22E9E700244A
:1032B00000235B02580AE2B2E3E7DB083C00F8E7D0
:1032C0003B001733F3DB80231B0433431E26F61B1E
:1032D0001F2E14DD02225242D71B1A00FA4017009B
:1032E000202E04D00E4A94466444A3401D432B0074
:1032F0005D1EAB4107223B431A400027ADE7094A58
:103300002800A218954093406C1EA541F04007226A
:103310002B4303431A4000279FE7C04680FCFFFF72
:10332000A2FCFFFF82FCFFFF03685A0003D45B008E
:103330005B08C0187047802212061343F9E7C046A5
:10334000F0B557464E46DE464546E0B5814683B069
:103350009246002925D04B1E9B46002701935B46D1
:10336000FB18DC0FE4184B466410E5005E193000D2
:10337000FFF7DAFF019B8046A3420BD028000830FC
:103380004844FFF7D1FFD04506D80138504509D24F
:10339000671CE4E7504505D9A74202D0631E9B464F
:1033A000DDE70026300003B03CBC90469946A246BB
:1033B000AB46F0BD012809D0022805D0002801D075
:1033C000002070470248FCE70248FAE70248F8E7A5
:1033D000A93A0010C13A0010B53A001030B5234B9D
:1033E00083B005008C1E002B26D001A9200000E030
:1033F00000BF00281CD001992200FFF7A1FF041E86
:1034000016D0FFF791FF6368A864012B2AD0201D16
:10341000002B23DBFFF788FF0023E8642B6503689C
:10342000002B0FDBFFF780FF2861002003B030BDC9
:10343000002309202B61F9E70D480E49091AC9102C
:103440000191D9E71801000FFFF7B4FF2861431E6F
:1034500098410823404298430930E7E70123E86494
:103460002B65DCE7002305202B61DFE7000000006F
:10347000C4260510AC380510036810B50400DA073F
:1034800005D448309B070ED500F06CFC23685A0722
:103490000ED51A0713D5DB0604D42000D130FF3037
:1034A00000F06CFC10BD00F059FC23685A07F0D402
:1034B0002000D03000F05AFC23681A07EBD420001B
:1034C0005130FF3000F056FC2368E4E70368002B1E
:1034D00000D01B1818007047092070477047C0467D
:1034E00070B504000D0008E02B6C2A006361210018
:1034F000012023699847082807D1296C2000FFF78D
:103500006DFF0028F0D033F0F9FD0728FBD1002033
:10351000296CFFF7E3FF281D00F00AFCF0B5CE464A
:10352000474680B5C3682E4C9846A544836906007B
:1035300014000431402205A8994635F0A1FC00236F
:1035400004AD049323E0F0222B6C52007361290038
:103550007CA835F095FC7CAA31003369200098479F
:103560008A9B07006B6403934B46009501933200DE
:10357000330021000120C04700281FD1F0227CA980
:103580005200280035F07CFC0024082F1FD1296C44
:103590003000FFF723FF611E8C410700093400282B
:1035A000D1D0AB6B10216B644B4621430193009546
:1035B000330032000120C047002800D0092738001E
:1035C000F5239B009D440CBC90469946F0BD072F07
:1035D000F4D12000296CFFF781FF05A800F0A8FBBB
:1035E0002CFCFFFF406C704770B5CB6BFAB00B64DE
:1035F00004000E004022043103A835F041FC0123F1
:103600005B42029306E002AA210023699847050065
:1036100008280AD1129B200019000193FFF7DEFE53
:103620000028F0D009207AB070BD02A8FFF724FF6F
:10363000062DF7D131002000FFF752FF10B582614F
:10364000DA6BC1601A6419000022FFF767FF10BD32
:10365000436970B50B64C36804000D00002B15D1DD
:103660000A002369010002209847072807D008288C
:1036700003D129002000FFF733FF33F03FFD002086
:10368000296CFFF72BFF281D00F052FB0122FFF7EA
:1036900045FF33F033FDC046C36810B5002B05D09D
:1036A000CB6B00220B64FFF739FF10BDFFF79CFFC7
:1036B000FBE7C0467047C046836810B5002B02D0B8
:1036C00001000120984710BD012906D0002906D02D
:1036D00003390220012900D970470120FCE7002BA3
:1036E00008D10F2A06D8920082185268009B002049
:1036F0001A60F1E70220EFE700B585B003AB0A00DE
:10370000009300210023FFF7DFFF039805B000BD01
:10371000012906D0002906D003390220012900D949
:1037200070470120FCE7002B08D10F2A06D8009B28
:1037300092001B68821853600020F1E70220EFE737
:1037400000B585B003AB039200930A00002300216B
:10375000FFF7DEFF05B000BD70B51A4CD36BA54472
:10376000136406000D0019A8111D402235F088FBD6
:1037700001235B42189314E00C2118A802AAFFF75A
:10378000DFFF290018A8B047002812D1069B18AA0D
:1037900002A9083001939847040005280AD0092897
:1037A00007D0289B02A819000193FFF717FE0028F5
:1037B000E2D0092418A8FFF75FFE200090239B00A9
:1037C0009D4470BDC0FDFFFFF0B5DE4657464E4636
:1037D0004546E0B5160003220D0011008BB01F0016
:1037E0000193EB6C01401C1D009107A91B688B46DF
:1037F0000894002F6BD01A0C1B0459460793022320
:103800000B72FD3313409B004A72E418009B022B9D
:1038100000D1AC6B2B6DDB0747D400230593083335
:10382000034002932768002F00D112E1019B022B75
:1038300049D06388278898460434012340469A4635
:103840009843AB6C0F21994681443000FFF754FF39
:103850000021814506D8390053469943494488429E
:103860008941494243465A0002231340012217402E
:103870003B43012B3AD0002B30D0022B1BD12368C5
:10388000009A5F007F08002A67D1002906D0029ABB
:10389000002A00D17CE0002F00D1A9E0002B00DA43
:1038A00004340137BF00E419BCE75946300000F08A
:1038B0000BFB002810D009200BB03CBC9046994669
:1038C000A246AB46F0BD636808349846B5E71B02D4
:1038D00007935B461A8199E70820EDE7009B002BD0
:1038E00002D0002900D08DE004349BE7009B002B20
:1038F0001AD1002916D02368DF0F63689A1CDAD02A
:103900002A0058320692013300D1BDE0201DFFF796
:10391000DDFD06AB01003A00280027F083F80028FF
:1039200000D082E008347DE70D2130002F6AFFF7D8
:10393000E3FE8742F6D1AB6A9C42F3D12000FFF749
:10394000F3FC0F2102003000FFF7FAFE30002A00DE
:103950000021FFF7F5FE0720AEE72B6A0D213000AE
:103960009846FFF7C9FE804501D0236896E7AB6A09
:103970009C42FAD10023EB6204332B63231DAF6218
:103980006B632368002B00DA86E00123059388E748
:10399000002F2DD058239C46AC4463460393231D2F
:1039A00099460023984606AB220004933B004C4600
:1039B0004746B24698462E00914603E004342F0055
:1039C000454542D0039B20000693FFF77FFD049BF3
:1039D0000100002230007D1C27F024F80028EDD0E3
:1039E0004346B84635004C4656461F009845BCD164
:1039F0000D213000FFF780FE069B28626B62AC62EF
:103A0000062059E72000FFF78FFC04340700AC6361
:103A1000280027F067F8002800D14CE730003A0072
:103A20000F21FFF78DFE072046E707000D2130002C
:103A3000FFF762FE2862022F2BD1069BEB622B0060
:103A40002C336B62AC62062036E735004C46564696
:103A5000CEE75946300000F037FA002800D02AE7B8
:103A6000059B002B00D137E70F213000FFF744FE04
:103A70000E2102003000FFF763FE3000094A0F21DB
:103A8000FFF75EFE072017E70D213000FFF734FE39
:103A90002862069B6B62D5E7380001308000201851
:103AA0004DE7C04669A7021010B50023FFF78CFE52
:103AB00010BDC04610B50123FFF786FE10BDC046FD
:103AC00010B50223FFF780FE10BDC046F0B5CE460C
:103AD000474680B50500C3B014001E00012955D02B
:103AE00000294BD0032922D0042949D1002B47D1EA
:103AF000102A45D8102203681A4200D0F1E020AF06
:103B0000380000F03DF900230120A96B02009A4023
:103B1000144203D00E689A00BE5004310133042BC6
:103B2000F4D13800A96300F029F9002029E0032B23
:103B300026D11404230C160C9846F318102B1FD80A
:103B4000082203681A4200D098E020AF380000F045
:103B500013F94246AB6BF6001C00002A08D0D400D3
:103B6000F21A1C19BA181968D15004339C42FAD1C0
:103B7000AC63380000F0FEF8002002E0002B24D0F7
:103B8000022043B00CBC90469946F0BD130C1404BF
:103B90009846240C012E2ED0052EF1D11B19202B76
:103BA000EED842460F2A70D9A146002C7ED1AA6BCE
:103BB0004346AA630F2B00D89AE04B46002BDBD07C
:103BC000684600F0D3F80020DBE700231004A96B5F
:103BD000000C013632009A40104204D00F689A005F
:103BE000AA18576004310133102BF3D10020A3042D
:103BF000C7D4A963C5E71B19102BC1D843460F2BA7
:103C0000BED82B681E4206D00322280093432B60A7
:103C1000483000F0A5F820AF380000F0A1F8AA6BFA
:103C2000002C24D04346DB00FF1800239946640093
:103C30000023A400D158F95004339C42FAD14B46DA
:103C400012196F46002B0FD04046102800D21020CA
:103C50004B46D90000231038C0003818D458C4503F
:103C600004339942FAD15218012EA1D120AF043267
:103C70003800AA6300F072F8002082E793430360E3
:103C80005130FF3000F078F85FE7102B3BD910225D
:103C90005242914699442B68194208D002222800CA
:103CA0008B4313432B60483000F05EF82B680422EE
:103CB0001A4221D143460F2B03D820AF380000F021
:103CC00053F86F46380000F053F810244346AA6BAF
:103CD000E41A002CB8DD434620AFDB006400FF1877
:103CE000A6E793430360D130FF3000F049F806E7C0
:103CF00020A800F037F860E7280093432B60D0300D
:103D000000F036F8D6E72B680B4207D002222800D5
:103D10008B4313432B60483000F026F820AF380067
:103D200000F022F8A146AA6B002C00D07AE73FE70A
:103D3000011C343138C9043B9C461D60A646011C59
:103D400020313CC990469946A246AB46011C083139
:103D5000FCC941680068E54600BDC0467047C046E2
:103D60007047C0467047C0467047C0467047C0465F
:103D70007047C0467047C0467047C0467047C0464F
:103D80007047C04601B401A801B585B0FFB408A8CA
:103D900041464A4653465C4665463EC001A83EC879
:103DA0000F98009000230CB401A9FFF71DFC109B95
:103DB00012B0184701B401A801B585B0FFB408A836
:103DC00041464A4653465C4665463EC001A83EC849
:103DD0000F98009000230CB401A9FFF739FC109B49
:103DE00012B0184701B401A801B585B0FFB408A806
:103DF00041464A4653465C4665463EC001A83EC819
:103E00000F98009000230CB401A9FFF745FC109B0C
:103E100012B0184701B401A801B585B0FFB408A8D5
:103E200041464A4653465C4665463EC001A83EC8E8
:103E30000F98009000230CB401ABFFF7FFFB109B21
:103E400012B0184701B401A801B585B0FFB408A8A5
:103E500041464A4653465C4665463EC001A83EC8B8
:103E60000F98009000230CB401AAFFF775FC109B7B
:103E700012B01847027A0300002A0BD1427A002AB6
:103E80000FD0013A42724268111D4160032112684D
:103E9000017202E0013A02720268100E12021A6008
:103EA0007047B020FCE7C04600B585B003AB009377
:103EB0000C2200230021FFF707FC039805B000BD8A
:103EC00010B5FFF7F1FF10BDF0B557464E46454619
:103ED000DE460023E0B587B003930F339846083BD6
:103EE000994680231B0306000F009A463800FFF70F
:103EF000C1FF0400B02800D1C3E003062AD50300A7
:103F000042469343DBB2802B00D171E0902B3DD031
:103F1000A02B00D185E0B02B50D0C02B00D196E073
:103F200003004A469343DBB2D02B0AD153460240EA
:103F300001321A43052301213000FFF7C7FD002895
:103F4000D4D00924200007B03CBC90469946A24634
:103F5000AB46F0BDFF23820013401D1D05AB9B4601
:103F600000930D22002300213000FFF7ADFB630614
:103F700020D4059B9C46654405955B460D22009325
:103F8000002100233000FFF7C3FBAFE7833B034072
:103F90000D2BD6D005AD0240009500230021300046
:103FA000FFF792FB009500230D2200213000FFF760
:103FB000AFFB9BE7059B5D1B0595DEE7B12874D041
:103FC000B22800D1CFE0B32800D184E0FC23034025
:103FD000B42BB6D04A465346024001321A4301215F
:103FE00001233000FFF772FD002800D17EE7A8E72B
:103FF00004023800FFF73EFF802520432D02A8422F
:104000009FD004010005020C002300213000FFF7BF
:104010005DFD002895D12C4200D167E70123039371
:1040200064E7FF234A461B011900824311410A003D
:104030001A40030702D58023DB011A430023002125
:104040003000FFF743FD002800D14FE779E7C6288D
:104050004CD0C7285ED003004A469343DBB2C02B46
:104060006DD0C82872D0C92800D06AE73800FFF7A1
:1040700001FFF02302031B031340424602400132BA
:1040800057E7039B0024002B00D05BE705AD0095AC
:104090000E2200213000FFF717FB009500230F22AE
:1040A00000213000FFF734FB4CE73800FFF7E2FE59
:1040B000002800D145E7030042469343DBB2002BC2
:1040C00000D03EE7020000213000FFF7FFFC00288F
:1040D00000D10BE735E73800FFF7CCFEF0230203F1
:1040E0001B03134042460240013277E73800FFF7D6
:1040F000C1FEF02302031B0313404246024001327B
:104100001A43032303213000FFF7E0FC002800D10D
:10411000ECE616E73800FFF7ADFE021E00D110E70F
:10412000030041468B43DBB2002B00D009E704219A
:104130003000FFF7CBFC002800D1D7E601E743466B
:10414000A0221C40013412032243DAE73800FFF7B3
:1041500091FE434602009A43D2B210321840120335
:1041600001300243E6E605AB00939B460D22002397
:1041700000213000FFF7A8FA3800FFF77BFE0306A6
:1041800018D57F25B03C059B2840A0409C46604444
:10419000059038000734FFF76DFE0306F3D4812144
:1041A0007F23890003408C46A340059A62449B18F4
:1041B0000593E2E60224F2E7030000B5DB6C85B06C
:1041C0005A680800120201921A0001A908324A60D6
:1041D00003220A72DB794B72FFF776FE05B000BD51
:1041E00010B5FFF76DFE806C10BDC04610B5FFF72F
:1041F00067FEC26CD3799B000833D01810BDC0464F
:1042000010B532F07BFFC04610B5FFF7F9FFC0468E
:1042100010B5002903D1FCF737FB203002E0081C61
:10422000FCF732FB10BDC046F0B54E465746DE46A1
:104230004546E0B50F00002183B006008946002FF7
:1042400006DA3900002746428F410121494289465A
:10425000002B07DA4946C94310008946190000239C
:1042600042428B4134003D0092469846BB4269D899
:1042700066D041465046FFF7CBFF834639003000F9
:10428000FFF7C6FF5B461B1A9C46203B9B4600D5AA
:1042900075E05146584681400B00514660468140CA
:1042A0000A00BB4261D85ED034003D005946A41AD2
:1042B0009D41002900DA7AE00021002001260090CB
:1042C000019159468E400196614601268E40614615
:1042D0000096002950D0D90756085F080E43634660
:1042E0000EE0AF4201D1A6420CD8A41BBD41012172
:1042F00024196D410022013B64185541002B06D062
:10430000AF42EED9013B24196D41002BF8D1009842
:1043100001995B4600196941002B3DDB2E00DE4010
:1043200063462C00DC405B46002B4BDB34005D46D3
:10433000AC4023006446A6403200801A994103E055
:10434000B24296D9002000214B46002B04D0030036
:104350000C0000215842A14103B03CBC9046994654
:10436000A246AB46F0BDB1429ED90021002000908C
:10437000019161460029AED100980199E4E720231C
:10438000624651469B1AD94040460091614688409A
:10439000030000990B4380E7624620239B1A2A0002
:1043A0009A40260013006246D6401E43B8E7614695
:1043B00020260127761A00200021F7400090019165
:1043C000019781E76746202362463500BC409B1A6F
:1043D000DD4023002B43ADE7024670B50A43920748
:1043E0002AD11E4DEE0104C808C9541B9443344021
:1043F00017D0D0B2D9B2401A2106014310D190B2E1
:1044000099B2401A210401430AD110021902000A8C
:10441000090A401A2102014302D1100E190E401A56
:1044200070BD9A42DFD010BA19BA884201D9012072
:1044300070BD0020C04370BD02780B78013001319F
:10444000002A09D09A4207D102780B780130013155
:10445000002A01D09A42EFD0D01A70BD01010101AB
:1044600010B503F063F8074C2368C01AC82804D9B4
:104470000123054A11784B40137003F057F8206070
:0C44800010BDC046F4C50020F0CE0020A6
:10448C002D4B70B51B78002B30D003F049F82B4D19
:10449C002B68C01A052829D9294C2368D8B203F0F7
:1044AC002FF9012823D02368D8B203F029F900286A
:1044BC0006D1244B1868C0B203F022F901281DD094
:1044CC002368D8B203F01CF9002823D02068C0B2AE
:1044DC0003F016F9012806D11A4B1868C0B203F084
:1044EC000FF901281DD003F01BF8286070BD154B87
:1044FC001868C0B203F004F90028D4D1124A134949
:10450C00136809688B4203D1114B1B681360D7E702
:10451C000133FBE70B4B1868C0B203F0F1F800282D
:10452C00D4D1094A1368002B01D0013B01E0074BA1
:10453C001B681360D7E7C046F0CE0020F4C50020FE
:10454C00540200205002002070C5002068C50020D5
:04455C006CC500200A
:1045600010B50A4C2368D8B203F0D0F8012803D163
:104570000022074B1A7010BD2068C0B203F0C6F8C5
:104580000028F8D1024B0122F4E7C0465808002069
:0445900048020020BD
:10459400F7B500241F4B1B685B00A34238DD1E4F98
:1045A400A3000193DB1959681C4B1D4D19600029A8
:1045B4001EDD1C4B1868FBF7E9FF28602868FEF72E
:1045C400C1FD194A194BFDF7B1FFFCF7FFF9184E6D
:1045D40002003368D8B2A300F95801F047FC2868F8
:1045E40002F0BCFF30680234C0B201F0B5FCD1E780
:1045F4000029E3D00B4B49421868FBF7C7FFFEF7CD
:10460400A1FD00220B4BFDF791FFFEF765FDD4E7FA
:10461400F7BDC046540800206002002064C5002095
:10462400B8C7002060CE0020CDCCCCCCCCCCEC3FA5
:084634004C0200200000F83FD9
:10463C0010B586B004AC0C49200000F09CF923792D
:10464C00E2780A49092B00D90949684634F0A8FFD9
:10465C00684632F055FD04000200064902A834F009
:10466C009FFF200006B010BD54C90020816C0410BF
:08467C00896C0410926C04101B
:1046840070B564210500FBF781FF64210400280054
:10469400FCF762F80F235B42CB1801D5013C3C3395
:0E46A400002C00DA183464206043C01870BD8A
:1046B40070B502F039FF0024194D2860194B1B789E
:1046C400002B26D0184E1949300000F077FD300039
:1046D40000F0CBFC02F028FF2B68C01A144B1B68B7
:1046E40098420CD9FA2C0ADC124B053418682100C4
:1046F400C0B202F05DFF02F017FF2860DEE7FF2C76
:10470400DCD1FFF745FF0B4B00211868C0B202F063
:104714004FFF084B00211868C0B202F049FF70BD7A
:10472400F0C500204802002060C900207C6C041001
:084734005C0200204402002099
:10473C0003211A4B70B51A68194CD3170B409B18F0
:10474C009B102360FFF774FF164B174A1860236801
:10475C0005009B009E583000FFF78EFF134B18602E
:10476C00134B1B78002B0AD0002302223100114C72
:10477C00200000F08AFE200000F073FC07E00E4BD6
:10478C001B78002B04D0854202D1FFF78DFF70BD42
:10479C00084C002302222900EAE7C04670C500201D
:1047AC00DCC9002060C50020E0C90020B0C9002091
:0C47BC00F0CE002060C900204802002060
:1047C80010B50F4800F0E4FB0E4C20000CF00CFA7A
:1047D8000D4A0E49200008F0D1FFB4200C4BC00050
:1047E8001968FBF7D1FE0B4B0138800018600A4BA3
:1047F8000A481968FBF7C8FE094B186010BDC04687
:1048080060C90020E7CE0020400200200D0C0110F6
:104818005008002068C500205C08002080A903001B
:0448280060CE00203E
:10482C00962170B589018AB0374801F07BF8374C76
:10483C0008AD200000F01AFA2100354800F084F889
:10484C00344B01211868C0B202F0FAFE324C04223B
:10485C00210007A834F00EFB211D0822280034F09B
:10486C0009FB002401212D4E07AB04940394029400
:10487C00019100950422300000F00EFD5A21300009
:10488C0000F072FC9620264B21001D682300254C5D
:10489C0000011A008E00A25152190131D61A3B2E7A
:1048AC00F8DD64338342F4D11F4C032223681F4983
:1048BC00D8B200F0ABFF20680221C0B202F0C0FEFB
:1048CC001B4B022218681B49C0B200F09FFF1A4B09
:1048DC0000211868C0B202F0B3FE184C0222236803
:1048EC001749D8B200F092FF23680221D8B202F027
:1048FC00A7FE2068C0B202F003FF012802D10022FB
:10490C00104B1A700AB070BDBCA30020D49C0020C0
:10491C0054C9002044020020786A041060C90020A9
:10492C0050080020E0C9002058020020614400100B
:10493C00500200208D440010540200205808002022
:08494C00614500104802002043
:1049540070B5050000680E00002802D0102109F08F
:1049640065F9102009F02EF904003200682100F0E6
:0E49740067F82C600121200000F081F870BD72
:104982000023F0B50500080089B006AC237001933E
:1049920007330093210023000122006800F0E9F8A8
:1049A2007F20A678A17923796778627924780240FA
:1049B200044018118446062005946446404244434C
:1049C200A446141144436344A4460C114443624474
:1049D200A446FA246144E400C9B20919059CDBB279
:1049E20024114443A446059CD2B26444E4B2029426
:1049F2003C1144433F19341160433018FFB2C0B236
:104A020000900197280000F004F8280009B0F0BDDA
:104A1400F0B505AC2678084F06AC257807AC2478A9
:104A2400B94202D9054FC91989B2C670057101701E
:104A3400427083704471F0BDCF07000030F8FFFF6F
:0E4A440000230372203301704260C36070478C
:104A520010B5037A0400002B0CD06068217803683B
:104A6200DB6A9847606803685B6B9847434258412A
:104A7200C0B210BD012100F003F80028EDD1F8E723
:104A820070B5040040680D000368DB699847012097
:0E4A92002072002D02D02000FFF7DAFF70BD69
:104AA000F8B51E00079B1500D318C26804000F005C
:104AB000934201D90020F8BD406821780368DB6A81
:104AC0009847079B002B10D160682A0003683900C3
:104AD0005B6898478542EDD16068310003681B6BC5
:104AE000984743425841C0B2E5E7069B002BEBD004
:104AF0006068079A036806995B689847079B984225
:044B0000D8D1E1E740
:104B0400F8B5050040680F0004681600A46BD2B223
:104B14002978A047002486420AD1A64207D96868AA
:104B240003685B69984738550134A4B2F5E701245A
:044B34002000F8BDA8
:104B3800F7B507001600002400910193B44213D280
:104B4800FB68351B9D4200D91D00721B019BA242C8
:104B580000D90023009A380011192A00FFF7CEFF68
:0C4B6800002802D06419E9E70120FEBD1E
:104B740073B5040000201D0006AB40CB1B780190E8
:104B840000902000FFF78AFF002805D0012332009F
:0A4B940029002000FFF7CEFF76BDD8
:044B9E00002070473C
:024BA20070475A
:0C4BA40010B50368C9B21B68984710BD2B
:0E4BB0008B23002249009B00C161C250704758
:0C4BBE0010B5036801211B6B984710BD67
:0C4BCA0010B503689C6B0123A04710BDD0
:104BD60030B58B248025A400025903006D00002007
:104BE600AA4206D0501C185101209B182D33FF33C2
:044BF600197030BD45
:064BFA00FC30C06A7047A8
:024C00007047FB
:084C02008C239B00C150704798
:084C0A008D239B00C15070478F
:104C12000300FC33DA6A002A0ED0DA6A002A0BD0CB
:104C22009A6A013080189A6AC07F0132D2B29A62BF
:0E4C3200DA6A013ADA62704701204042FBE77D
:104C40000300FC33DA6A002A04D09B6A0130C018E2
:0A4C5000C07F704701204042FBE7DF
:104C5C00054B10B5083303608E2304009B00C0186D
:0C4C6C0009F048FB200010BDB06C0410E3
:104C780070B5036804005B6A9847402008F0A0FFFD
:104C880005001A23E25E1823E15E04F0E7FF656180
:024C980070BDED
:104C9C007FB5036804005B6A0E0098470C2008F08F
:104CAC008DFF05001A23E25E1823E15E05F000F883
:104CBC0071002800256105F019F80A4B6946039329
:104CCC00094B00940193002302938E239B00E01860
:104CDC0009F078FA039B002B02D09B686846984732
:0C4CEC007FBDC046986C04102F4E0010D5
:0A4CF80010B50C2234F0C0F810BD16
:104D020070B58B25AD00435906001400D0188022DF
:104D12005200904200D9D41A30002D30FF30C01812
:104D2200220034F0ACF8735920001B19735170BD86
:104D320070B5050040690C00002801D004F0BFFEE8
:0E4D42002869002802D0210004F0D1FF70BDC6
:104D500070B504004069002802D00368DB689847FA
:104D60002369002B0CD08E239B00E518280009F046
:104D7000A5FA280009F0F0FA0C21206908F058FF84
:024D800070BD04
:104D82008B2330B502000C0001259B00C35885B06F
:104D92004069D1696C40002B07D100942B0003AA13
:104DA20004F0BBFEC0B205B030BD2D32FF3200941C
:0C4DB20004F095FE431E98414000F4E719
:104DBE00F0B515000122C3B05340009302AE0400BB
:104DCE0049002B003200406904F0A1FE002817D1E3
:104DDE002300FF27FC330134A84212D08021DA6A67
:104DEE0049008A420AD05A6A315CA218D1775A6AAF
:104DFE0001323A405A62DA6A0132DA620130EBE786
:084E0E000025280043B0F0BDAF
:104E160010B582684368006851104018D20701D562
:084E26000268D358984710BD43
:104E2E00F0B580270500BDB07F00286904F066FF4D
:104E3E000328FAD8FBF711FB470219198D239B00A3
:104E4E00EB58002B00D098478B24A4002A59002A37
:104E5E0007D029002D31FF31286904F057FF0023B8
:104E6E002B51286904F05AFFDFE72C000026FC3492
:104E7E006662A662E662F0226946286904F042FF85
:104E8E006A1C864214DAE36ABB4211D0E36ABB4263
:104E9E000CD06946636A895DD318D977FF21636A9E
:104EAE0001330B406362E36A0133E3620136E8E7E4
:104EBE00E36A002BB9DD8C239B00EB58002BB4D09A
:0C4ECE00E06A9847B1E702F058FBAEE73D
:104EDC00FA2373B500254283802204009B00836073
:104EEC001A4B45600833056145610360018352002C
:104EFC002900203034F050F82300FC335D629D62B1
:104F0C00DD628B239B00E5500433E550104A0433DB
:104F1C00E5500433E2500433E318DD608E239B002C
:104F2C00E61840332900E01809F0A2F8A3239B00EF
:104F3C00E01809F039F88022064B3000009312017A
:104F4C002B00182109F034F9200076BDB06C041048
:084F5C0064860410A46C04102B
:104F640070B5042002F0CAFA0500052002F0C6FA62
:104F7400054C290002002000FFF7AEFF034A044954
:104F8400200008F0FDFB70BDD49C002040020020EE
:044F94005D4C001060
:104F9800020000232C321370FA22D200C375437624
:0A4FA8004362826203714371704797
:104FB20070B50C000126031981780500D87BA64044
:104FC20002F07DFB0024EB7DA3420AD92B199A7EC5
:104FD200164203D02978D87902F071FB0134E4B289
:044FE200F1E770BDC6
:104FE60070B504000E000025E37DAB4207D96319B6
:104FF6006178D879013502F060FBEDB2F4E7E1782B
:0A500600A419E07B02F059FB70BD15
:10501000F8B50378461805001900F07902F050FB46
:10502000002401272B7EA3420BD9B37E23413B42B0
:1050300004D02B19A978D87B02F042FB0134E4B2EA
:04504000F0E7F8BDE0
:1050440070B504000E000025237EAB4207D9631916
:10505400E178D87B013502F031FBEDB2F4E76178F9
:0A506400A419E07902F02AFB70BDE8
:10506E0070B543790400002B49D1250002F067FA90
:10507E002C35636A2A78C31A002A19D02A26A15F12
:10508E008B4221DB23796062617E002B1DD1002AC9
:10509E0011D02B70637E227E0133DBB263769A428F
:1050AE0001D800236376617E2000FFF77BFF0BE0C3
:1050BE002826A15FE4E72000FFF78EFF2A22A35ED9
:1050CE00002BE7D001232B7070BD002A0FD00023D8
:1050DE002B70637EE27D0133DBB263769A4201D898
:1050EE0000236376617E2000FFF78BFFECE7200044
:1050FE00FFF7A1FF2A22A35E002BEAD0E2E7057993
:10510E00002D17D1237EAB42DED929002000FFF7F8
:10511E0049FF2823E05E02F020FA20002900FFF765
:10512E005BFF2A23E05E002801D002F016FA01355B
:10513E00EDB2E7E70025E37DAB42C5D9290020009B
:10514E00FFF75FFF2823E05E02F007FA2000290038
:10515E00FFF771FF2A23E05E002801D002F0FDF96F
:06516E000135EDB2E7E798
:10517400FA230A0013B5DB000400C83212DB081C52
:10518400C82900DDC82000B200290DDD0093642287
:105194000123002102F03BF80023208563852C3491
:1051A400237013BDC820404200216422218552424D
:0C51B4000093012302F02BF86085F2E765
:1051C000F0B502000024C37DC318934202D0947648
:1051D0000132FAE700246326802790424AD00B5D13
:1051E000002B47D030256D42AC469C446546092DC6
:1051F00006D8214DAC466344303B1B7883761EE0D5
:1052000041256D42AC469C446546192D04D81A4D83
:10521000AC466344373BF0E761256D42AC469C44A5
:105220006546192D04D8144DAC466344573BE4E75A
:10523000202B01D10023E1E72E2B11D18776631CAF
:10524000DBB2CD5C2E2D08D1837E02349C468023B8
:1052500065465B422B438376E3B201301C00BCE71A
:105260002A2B01D18676EAE75F2B01D1573BC5E7B0
:0C5270004023C3E7F0BDC046506D0410A1
:10527C0010B5030004000021C27D1218934202D025
:10528C0099760133FAE720000021FFF7A6FE0021F2
:08529C002000FFF7D1FE10BD58
:1052A400F7B5040008A840C80CAD00782D788446F2
:1052B4000AA807780BA800780193A07168424541B9
:1052C4006346073523716771E2752576082A01D98B
:1052D4000822E275032908D808000022FBF7C2F867
:1052E4000222252622700122A2702278012A1FD1CF
:1052F40000226270A278012A1CD10022E2700022EE
:10530400B05CA1180132C873D1B28D42F8D8002222
:10531400E57DD1B28D420FD9019BA118985C013271
:10532400C871F6E701212170DEE701222270DBE774
:105334000122DEE70122E1E70025E37DAB420BD940
:105344006619F079012102F07FF901356178F0796D
:1053540002F0B4F9EDB2F0E70025237EAB420BD99D
:105364006619F07B012102F06FF90135E178F07BD9
:1053740002F0A4F9EDB2F0E72000FFF77DFFF7BDDE
:10538400F7B506000D0001922A4F002B00D02A4FDA
:10539400F37D9B00FA58013AAA4206DB0122FB186E
:1053A400043B1B68D31AAB4209DD00232522F17D9F
:1053B40099423ED90899CA540133DBB2F7E7002475
:1053C400A54204DA2523140008996D420B70F37D7D
:1053D400A34212D9013B1B1B9B00DB592800190077
:1053E4000093FBF7D3F8089B1855FF231840009B44
:1053F40001345843E4B22D1AE9E7B379002B18D1EC
:105404006A4624201179F27D019D013A0C1C002D7D
:1054140000DA002464B2121B93420ADA089AD41800
:105424002278002A03D120700133DBB2EBE7092A8A
:0C543400FAD8F7BD086D0410306D0410AC
:10544000F7B5D3438024C57D64425B190193A4461C
:105450000023DCB2A5420ED9074ECC5C345DC618E1
:10546000002A02DAB4760133F3E7019FBB42F9D197
:0C54700067463C43F6E7F7BD506D0410A2
:10547C007FB51600040002AD0095FFF77DFF3200EA
:0A548C0029002000FFF7D6FF7FBDC6
:0854960010B5FFF7F0FF10BD97
:10549E000B000F2130B50122172487B069440B7021
:1054AE00C3686C44186803680092DD682300A8473F
:0654BE00207807B030BDAC
:1054C400F8B5427A036805000C00CFB29B680E0A57
:1054D400002A0FD13900FF2798472B68BC430443A7
:1054E4009B68310028009847030220003840184385
:1054F40080B2F8BD31009847FF262B680002344083
:1055040004439B68390028009847B4432043EFE7DD
:1055140013B5C368186803680092DC680B00A047E1
:0255240013BDB5
:025526007047CC
:025528007047CA
:02552A007047C8
:10552C0037B5436804000D0000910192994204D1F3
:10553C006B469A8803899A4210D06B461A79E368B5
:10554C000821186804F0AFFDE3682900186804F01E
:0E555C00C6FD201D0622694633F08CFC37BDCB
:10556A00C36810B50400002B0BD01868002808D0B7
:10557A0003685B6898470421E06808F054FB00233D
:04558A00E36010BD0D
:0E558E0010B50400182108F04CFB200010BDE1
:10559C0037B5C5680400002D04D1042008F00EFBBB
:1055AC00E0600560E3681B68002B11D1302008F027
:1055BC0005FB1422A35E05001021625E1220215E01
:1055CC00012040420090280004F032FDE3681D6089
:0255DC0037BDD9
:1055E00070B5102001F08CFF0500132001F088FF3A
:1055F0000400122001F084FF094A0A4B08321A60A5
:105600000121002259725A601A72DA609882064AA1
:10561000064918001D825C8208F0B4F870BDC046CF
:105620007C6D0410BC9C0020400200202B55001013
:1056300070B5104C10492068104A114B88420FD1A8
:10564000606890420CD1A068984209D100250D48AD
:1056500025600AF0EFFB03008020290080049847B2
:10566000216009480021A36062600AF047FA002324
:10567000236070BD44170020DE8116F0299B72BDA7
:0C5680007ABE59D355420000A0860100FC
:10568C000B00F0B50F2700260E33023902003A400A
:10569C00D5B22C0000093034092A00DD07341C7007
:0A56AC005E70023B9942F1D1F0BD9F
:0456B6001E207047FB
:0256BA00704737
:1056BC0013B50400684609F01DFC21000098FFF7A3
:1056CC00DFFF210001981031FFF7DAFF202016BD13
:1056DC0010B5192001F00EFF040004480AF0A4FBD9
:1056EC00030001200021A0409847C046554200000D
:0A56FC0010B503684068984710BD20
:0E570600C36810B5002B01D09B68984710BDFA
:1057140010B50400FFF7CDFF84420AD2054B2401E3
:105724001C196068002804D003685B68984700234C
:08573400636010BD6008002055
:10573C0010B50400054B0160C360426000210422D7
:10574C00083033F029FC200010BDC046B86D0410A1
:10575C00F0B587B004000E0000921F00FFF7A5FF04
:10576C0084423CD2284B22019B185B68002B02D050
:10577C002000FFF7C9FF200001F0BCFE019038208B
:10578C0008F01CFA0199050004F026FB009B022B83
:10579C0027D13A00310002A8FFF7CAFF02A928005E
:1057AC0004F036FB02A8FFF7A8FF3A00310002A86C
:1057BC00FFF7BEFF02A9280004F047FB02A8FFF781
:1057CC009CFF114B22019B18D9685D60002906D102
:1057DC00009B032B12D10231200001F031FF07B0E6
:1057EC00F0BD009B3A00310002A8032BE0D0FFF77C
:1057FC009FFF02A9280004F00BFBDFE7009B042BA2
:0C580C00EAD10321E8E7C0466008002054
:0A58180010B50023FFF79EFF10BD3E
:105824009C2370B55B00C35C05001400002B1CD1E5
:105834000368DB699847F0210C4B09012140C91822
:105844004B1E9941F0232340303B5A4253410F22CF
:105854000731144001330D3A012C02D0023C62425C
:105864006241A869006804F0C0FD70BD00FDFFFF3F
:105874009C2310B55B00C35C0400002B05D1A36915
:0C588400186804F0E2FD0028F9D010BD07
:105890009C2370B55B00C55C0400002D14D18369A6
:1058A000002B0CD01868002809D00368DB689847E3
:1058B000A36904211D60A06908F0BAF9A56100235D
:0A58C000FC34E3622363636370BDF0
:1058CA009C23F7B55B00C35C0400002B2AD180251A
:1058DA00FF276D00A369186804F098FD002821D0FD
:1058EA0007F0D5FCA369012218686B46DE1D036820
:1058FA0031005B6998472300FC335A6BAA420ED0E9
:10590A005A6BAA420BD02200D96A307828325054F6
:10591A00DA6A01323A40DA625A6B01325A6307F0A4
:06592A00CCFCD7E7F7BD3D
:105930007FB59C235B00C35C04000D00002B37D1B6
:105940008669002E04D1042008F03EF9A0610660AB
:10595000A369186800282CD1783008F035F90600C2
:105960002223E25E2023E15E2B0005F005F9A36906
:105970001E602423E25E531C06D0A0692621635ECC
:105980000068032105F006F9A369186800280FD004
:1059900000220A4B69460393094B0094019302923B
:1059A00004F070FD039B002B02D09B68684698476B
:1059B0007FBD290004F00AFDDBE7C046C46D04107A
:0459C000CB580010B0
:1059C40010B582684368006851104018D20701D5A9
:0859D4000268D358984710BD8A
:1059DC009C2210B552000300805C002806D00120E8
:1059EC0001F0B8FD054801F0DDFB10BD9B69002BF3
:1059FC00FBD01868431E9841C0B2F6E7C89F002040
:105A0C0070B504000D0001F0CDFB030000208342B3
:105A1C0004D0236829001B6C2000984770BD08B483
:105A2C00024B9C46024BC01A08BC60470D5A001032
:045A3C004001000025
